:0308B70001080035
:10089E00758920758DFD758840759850C298C299DE
:0108AE002227
:0208BB00AF99F3
:0108BD002218
:0808AF00EF04F5993099FD22D8
:10088C0012089E3098FD1208BB1208AFC298C2998C
:02089C0080F1E9
:03000000020800F3
:0C080000787FE4F6D8FD758108020847F7
:10080C0002088CE493A3F8E493A34003F68001F26E
:10081C0008DFF48029E493A3F85407240CC8C333ED
:10082C00C4540F4420C8834004F456800146F6DFBC
:10083C00E4800B01020408102040809008B7E47E8D
:10084C00019360BCA3FF543F30E509541FFEE493B1
:10085C00A360010ECF54C025E060A840B8E493A378
:10086C00FAE493A3F8E493A3C8C582C8CAC583CAA3
:10087C00F0A3C8C582C8CAC583CADFE9DEE780BE5B
:0108BA00003D
:00000001FF
